:020000040800F2
:1000000000000C201D1700080D1100081511000834
:100010001D110008251100082D1100086D1700089A
:10002000000000000000000000000000A1DB00084C
:10003000351100080000000041DB000831BA00085B
:100040006D1700086D1700086D1700086D17000880
:100050006D1700086D1700086D1700086D17000870
:100060006D1700086D1700086D1700086D17000860
:100070006D1700086D1700086D1700086D17000850
:100080006D1700086D1700086D1700086D17000840
:100090006D1700086D1700086D1700086D17000830
:1000A0006D1700086D1700086D1700086D17000820
:1000B000000000006D1700086D1700086D1700089C
:1000C0006D1700086D1700086D1700086D17000800
:1000D0006D1700086D1700086D1700086D170008F0
:1000E0006D1700086D170008451100086D1700080E
:1000F0006D1700086D1700086D1700086D170008D0
:100100006D1700086D1700086D1700086D170008BF
:100110006D1700086D1700086D17000859110008C9
:100120006D1100086D1700086D1700086D170008A5
:100130006D1700086D1700086D1700086D1700088F
:100140006D1700086D1700086D1700086D1700087F
:100150006D1700086D1700086D1700086D1700086F
:100160006D170008811100086D1700086D17000851
:100170006D1700086D1700086D1700086D1700084F
:100180006D1700086D1700086D1700086D1700083F
:100190006D1700086D1700086D1700086D1700082F
:1001A0006D1700086D1700086D1700086D1700081F
:1001B0006D170008000000006D1700086D1700089B
:1001C0006D170008000000006D1700086D1700088B
:1001D0006D1700086D1700086D1700086D170008EF
:1001E0006D1700086D1700086D1700086D170008DF
:1001F00000000000000000006D1700086D170008E7
:100200006D1700086D1700086D1700086D170008BE
:100210006D1700086D1700086D1700086D170008AE
:100220006D1700086D1700086D1700086D1700089E
:080230006D1700086D170008AE
:1002400010B5054C237833B9044B13B10448AFF310
:1002500000800123237010BD9000002000000000EA
:10026000FCE5000808B5034B1BB103490348AFF395
:10027000008008BD0000000094000020FCE500089C
:1002800053B94AB9002908BF00281CBF4FF0FF31FD
:100290004FF0FF3000F07EB9ADF1080C6DE904CEEF
:1002A00000F006F8DDF804E0DDE9022304B0704751
:1002B0002DE9F04F099D0C46002B4DD18A420F4687
:1002C00084469646B2FA82F360D94BB102FA03FE35
:1002D000C3F120029F4000FA03FC20FA02F2174308
:1002E0004FEA1E461FFA8EF44FEA1C42B7FBF6F1A6
:1002F00006FB117701FB04F042EA0742904208D95D
:100300001EEB020201F1FF3702D2904200F22D8172
:100310003946121A1FFA8CFCB2FBF6F006FB1022CB
:1003200000FB04F44CEA024C644508D91EEB0C0CAB
:1003300000F1FF3202D2644500F21A81104640EA11
:100340000140ACEB040C002125B12CFA03F3002290
:10035000C5E90032BDE8F08F8B4205D90DB1C5E982
:10036000000100210846F5E7B3FA83F100294DD1D9
:10037000A342C0F0F280904280F0EF800646234610
:100380000846002DE6D0C5E90063E3E7002B40F006
:10039000A2808A1A4FEA1E471FFA8EF60121B2FB8D
:1003A000F7F407FB14204FEA1C4242EA004206FB26
:1003B00004F090420FD91EEB020204F1FF382CBF6B
:1003C0004FF001094FF00009904203D9B9F1000F35
:1003D00000F0C8804446121A1FFA8CFCB2FBF7F0FA
:1003E00007FB102200FB06F64CEA024C664508D9D2
:1003F0001EEB0C0C00F1FF3202D2664500F2BB800E
:100400001046ACEB060C40EA04409DE7C1F1200623
:100410008B4004FA01FE22FA06F720FA06FCF440AB
:100420008A401F434EEA0C0300FA01FE4FEA1748C8
:100430004FEA13491FFA87FCB4FBF8F008FB10449D
:1004400049EA044400FB0CF9A1450ED93C1900F11E
:10045000FF3A2CBF4FF0010B4FF0000BA14503D921
:10046000BBF1000F00F093805046A4EB09041FFA83
:1004700083F9B4FBF8F308FB134403FB0CFC49EAD3
:100480000444A44506D93C1903F1FF3801D2A44520
:100490007AD8434643EA0040A4EB0C04A0FB029840
:1004A0004445CC46434602D306D1CE4504D201385A
:1004B000B9EB020C68EB07035DB1BEEB0C0264EB19
:1004C000030404FA06F622FA01F3CC401E43C5E900
:1004D000006400213EE702FA03FEC3F1200104FAA2
:1004E00003F200FA03FCCC404FEA1E4720FA01F168
:1004F0001FFA8EF6B4FBF7F00A4307FB1044110C09
:1005000041EA044100FB06F48C420ED91EEB0101C6
:1005100000F1FF382CBF4FF001094FF000098C4269
:1005200002D9B9F1000F2CD04046091B92B2B1FBA1
:10053000F7F407FB141142EA014204FB06F1914271
:1005400007D91EEB020204F1FF3801D2914215D8FF
:100550004446521A44EA004121E7861A64EB030339
:1005600001200EE7023C724435E702397244D0E6BE
:10057000F4440238E3E6F444023842E7023C7244B1
:10058000E7E702387144D0E7023B3C4482E7023897
:100590003C446AE7704700BF80B500AF1E4B1F4A5E
:1005A0001A601D4B00225A601B4B00229A601A4BA6
:1005B0000022DA60184B00221A61174B04229A615C
:1005C000154B00221A77144B002283F82420124B7B
:1005D00001229A62104B002283F82C200E4B00223D
:1005E00083F840200C4B00229A660B4B00225A6481
:1005F000094B00221A65084B0022DA63064B0022E1
:1006000083F85420044801F025FA0346002B01D05A
:1006100000F0E6FC00BF80BDAC000020008002427C
:1006200080B5BAB000AF786007F1D40300221A6039
:100630005A609A60DA601A6107F11003C022002143
:1006400018460DF01BFD7B681B68244A934240D17D
:100650004FF400424FF00003C7E904234FF48043F6
:10066000C7F8B43007F11003184606F0AFFC034694
:10067000002B01D000F0B4FC194BD3F88C30184A91
:1006800043F48063C2F88C30154BD3F88C3003F4FC
:100690008063FB60FB68124BD3F88C30104A43F048
:1006A0000403C2F88C300E4BD3F88C3003F00403F3
:1006B000BB60BB680423C7F8D4300323C7F8D83025
:1006C0000023C7F8DC3007F1D4031946054802F0CF
:1006D0005FF800BFE837BD4680BD00BF0080024222
:1006E000000C02460008024280B500AF084A002113
:1006F00008480BF02DFA0346074A1360074A002109
:1007000007480BF025FA0346064A136000BF80BD78
:100710007CE600082907000838010020A0E6000850
:10072000390700083C01002080B582B000AF786036
:1007300001200BF09EFAFBE780B582B000AF786035
:100740000421044802F014FAC8200BF092FA00BF0A
:10075000F6E700BF0018024280B58AB000AF07F18B
:10076000140300221A605A609A60DA601A61494BD9
:10077000D3F88C30474A43F00403C2F88C30454B21
:10078000D3F88C3003F004033B613B69414BD3F851
:100790008C30404A43F00203C2F88C303D4BD3F812
:1007A0008C3003F00203FB60FB683A4BD3F88C30CB
:1007B000384A43F04003C2F88C30364BD3F88C30C3
:1007C00003F04003BB60BB68324BD3F88C30314A36
:1007D00043F00103C2F88C302E4BD3F88C3003F079
:1007E00001037B607B68002204212B4802F0A8F9FA
:1007F00000228021294802F0A3F900222021284864
:1008000002F09EF94FF400537B61264BBB6100233D
:10081000FB6107F114031946204801F0B9FF4FF4BA
:1008200080437B610023BB610023FB6107F114035C
:1008300019461B4801F0ACFF04237B610123BB6117
:100840000123FB6102233B6207F11403194612489E
:1008500001F09EFF80237B610123BB610123FB61CB
:1008600002233B6207F1140319460C4801F090FF84
:1008700020237B610123BB610023FB6100233B62DA
:1008800007F114031946064801F082FF00BF28371C
:10089000BD4680BD000C024600180242000802421C
:1008A000000402420000211080B500AF1F4B204A17
:1008B0001A601E4B1F4A5A601C4BA0229A601B4BA9
:1008C0000122DA60194B00221A61184B00225A618A
:1008D000164B00229A61154B0022DA61134B00225D
:1008E0001A62124802F05EF90346002B01D000F0B4
:1008F00077FB00210D4803F039FE0346002B01D0A1
:1009000000F06EFB0021094803F07BFE0346002B3C
:1009100001D000F065FB054802F044FB0346002BC4
:1009200001D000F05DFB00BF80BD00BFCC01002006
:1009300000540040EC9D903080B5BAB000AF7860B4
:1009400007F1D40300221A605A609A60DA601A61D3
:1009500007F11003C022002118460DF08FFB7B68C1
:100960001B682E4A934254D14FF040024FF00003CF
:10097000C7E904230023BB6707F11003184606F0FC
:1009800025FB0346002B01D000F02AFB244BD3F8B3
:100990008C30234A43F00203C2F88C30204BD3F84A
:1009A0008C3003F00203FB60FB68C023C7F8D4302F
:1009B0001223C7F8D8300023C7F8DC300023C7F86B
:1009C000E0300423C7F8E43007F1D4031946154892
:1009D00001F0DEFE124BD3F89C30114A43F40013B1
:1009E000C2F89C300E4BD3F89C3003F40013BB606C
:1009F000BB6800220521372001F0AEFB372001F053
:100A0000C5FB00220521382001F0A6FB382001F0AB
:100A1000BDFB00BFE837BD4680BD00BF00540040AD
:100A2000000C02460004024280B500AF1A480DF0E7
:100A300045FA1A4B1A681A4B1340194A934225D1AA
:100A400018480DF03BFA64200BF013F901F094FC08
:100A500001F0CEFC144B1B6C134A23F0806313642B
:100A6000114B1B6C104A23F0006313640E4B0B4AAE
:100A70009A640D4B9B6A0C4A43F40033936201F075
:100A8000F1FC01F0D7FC01F099FC02E007480DF001
:100A900015FA00BF80BD00BF2CE600080000010869
:100AA00000000C2040E600080020024050E600084C
:100AB00080B400AF00BFBD465DF8047B704780B5D1
:100AC00082B000AF7860786802F06CFA00BF083737
:100AD000BD4680BD80B582B000AF78600B46FB702C
:100AE00013463B80FB78002B09D10E4B00221A7075
:100AF000002301220C49786802F0A2F90EE00B4BAA
:100B000000221A70002301220949786802F0E6F8F1
:100B1000084B1B780133DAB2064B1A7000BF083756
:100B2000BD4680BDC001002040010020C101002061
:100B3000C20100200000002080B582B000AF7860C4
:100B40000B4B1B780133DAB2094B1A704FF08073EC
:100B500001220849786802F0C1F8074B1B7801337D
:100B6000DAB2054B1A7000BF0837BD4680BD00BF22
:100B7000C1010020C20100200000002080B5B4B0F7
:100B800000AF7860A24B1B781A46A24B9A5CA24B2E
:100B90001A700023A7F8CE309D4B1B78012B0AD189
:100BA0009C4B5B781B021AB29A4B1B781BB2134307
:100BB0001BB2A7F8CE30B7F8CE304AF6CD3293420A
:100BC00002D1934BFF221A70944B1B88002B22D129
:100BD0008F4B1B78002B1ED101F0CEFB01F008FCDF
:100BE0000223C7F8B8300023C7F8C0300223C7F883
:100BF000BC307F23C7F8C43007F1B40207F1B80353
:100C00001146184601F0FEFC034687F8B33001F0A8
:100C100011FC01F0D3FB7E4B1B78012B15D1804BCF
:100C20001B78002B11D17B4B5B781B021AB2794BDE
:100C30001B781BB213431BB29AB27A4B1A80784BC3
:100C400001221A70724BFF221A70714B1B7801330C
:100C5000DAB26F4B1A706E4B1B787F2B07D06C4B40
:100C60001B78012B0FD16E4B1B78002B0BD1684BDF
:100C70001B781A46674BD1184FF000730122786831
:100C800002F0DEF80AE0624B1B781A46614BD1187D
:100C90004FF080730122786802F0D2F85C4B1B7829
:100CA000802B40F0B1805D4B1B8801339AB25B4BC7
:100CB0001A8007F108038022002118460DF0DEF9A2
:100CC000544A07F108031146802218460DF051FAE4
:100CD0000123C7F8AC3001F04FFB01F089FB4F4B0B
:100CE0001B88013BDB01C7F8A8300023C7F8A430FC
:100CF000002387F8A33025E097F8A330DBB2002B60
:100D000020D1D7F8A83003F10161D7F8A43007F15A
:100D100008029B0013441A4644F2010001F0E2FA73
:100D2000034687F8A33097F8A330DBB2002B09D134
:100D3000D7F8A8308033C7F8A830D7F8A4302033CC
:100D4000C7F8A430D7F8AC305A01D7F8A4309A428B
:100D5000D2D801F06FFB01F031FB304B1A88314BD8
:100D60001B889A4250D101F007FB01F041FB02239E
:100D7000C7F890300823C7F898300123C7F894309B
:100D80007823C7F89C3007F18C0207F190031146D5
:100D9000184601F037FC034687F88B300023C7F86C
:100DA000A8300023C7F8C8301BE0D7F8A83003F1FB
:100DB000006303F58033D7F8A82002F101621946D9
:100DC00044F2010001F08EFA034687F88B30D7F821
:100DD000A8308033C7F8A830D7F8C8300133C7F837
:100DE000C8300E4B1B881A46D7F8C8309342DCDB5C
:100DF00001F020FB01F0E2FA084B00221A80084BB8
:100E000000221A70FFF710FE00BFD037BD4680BD2C
:100E1000C001002040010020C3010020C4010020C7
:100E2000C8010020C601002080B584B000AF786002
:100E3000786802F07EF9F860FB68042B10D17B68BB
:100E40001B681022DA610A4B1B78002B02D1FFF7D6
:100E50002FFE05E0064B1B78013BDAB2044B1A70FB
:100E6000786802F09FF800BF1037BD4680BD00BF14
:100E7000C101002080B500AF002003F00FFC034645
:100E8000002B01D000F0ACF803F028FC0346002B47
:100E900001D000F0A5F800BF80BD80B500AF00F024
:100EA00067FC00F018F800F07AF8FFF755FCFFF740
:100EB00073FBFFF7DFFF00F081FA00F0B5FA00F0F6
:100EC00067FBFFF7F1FC0AF0F3FDFFF70DFC0AF0FA
:100ED00015FE00BFFDE780B59EB000AF07F1180317
:100EE0006022002118460DF0C9F83B4600221A6026
:100EF0005A609A60DA601A615A614FF4403004F027
:100F000075FC0346002B01D000F06AF83223BB6168
:100F10004FF480737B624FF480537B641023BB6279
:100F200001237B631023BB634FF08043FB630223E9
:100F30003B6501237B650023FB650123BB655023D3
:100F40003B6602237B660223BB660223FB6600230B
:100F50003B6700237B6707F11803184604F052FD36
:100F60000346002B01D000F03BF81F233B60032316
:100F70007B600023BB600023FB6000233B610023F8
:100F80007B613B460421184605F018FC0346002B04
:100F900001D000F025F800BF7837BD4680BD80B590
:100FA00000AF04F00FFD022004F0ACFC0346002B60
:100FB00001D000F015F800BF80BD000080B582B000
:100FC00000AF78607B681B68044A934201D100F04F
:100FD000FFFB00BF0837BD4680BD00BF002C0140AD
:100FE00080B400AF72B600BF00BFFDE780B582B02D
:100FF00000AF0D4BD3F894300B4A43F00403C2F812
:101000009430094BD3F8943003F004037B607B6881
:1010100004F0E8FC00220F216FF0010001F09CF8C1
:1010200000BF0837BD4680BD000C024680B58EB0BB
:1010300000AF786000233B630023FB622E4BD3F8A4
:10104000A4302D4A43F40063C2F8A4302A4BD3F8ED
:10105000A43003F40063FB60FB6807F1100207F1A2
:1010600014031146184605F0F3FE05F0C9FE386377
:101070003B6B224AA2FB03239B0C013BFB62204BF0
:10108000204A1A601E4B40F2E732DA601C4AFB6AC3
:1010900053601B4B00221A61194B00229A601848BA
:1010A00008F02CFC034687F8373097F83730002BD0
:1010B00018D1134808F084FC034687F8373097F8B6
:1010C0003730002B0ED17B680F2B08D800227968AF
:1010D0002A2001F041F80C4A7B68136002E00123EA
:1010E00087F837302A2001F051F897F83730184642
:1010F0003837BD4680BD00BF000C024683DE1B436F
:1011000020020020002C01400800002080B400AF25
:1011100000BFFDE780B400AF00BFFDE780B400AFC3
:1011200000BFFDE780B400AF00BFFDE780B400AFB3
:1011300000BFFDE780B400AF00BFBD465DF8047B93
:101140007047000080B500AF024808F0D9FC00BF2E
:1011500080BD00BF2002002080B500AF024801F032
:1011600041FF00BF80BD00BFCC01002080B500AFB3
:10117000024801F051FF00BF80BD00BFCC0100203C
:1011800080B500AF024803F0D1FB00BF80BD00BFB7
:101190000403002080B586B000AFF860B9607A60C3
:1011A00000237B610AE0AFF300800146BB685A1C54
:1011B000BA60CAB21A707B6901337B617A697B6855
:1011C0009A42F0DB7B6818461837BD4680BD80B573
:1011D00086B000AFF860B9607A6000237B6109E0F7
:1011E000BB685A1CBA601B781846AFF300807B6955
:1011F00001337B617A697B689A42F1DB7B68184630
:101200001837BD4680BD80B483B000AF78604FF022
:10121000FF3318460C37BD465DF8047B704780B439
:1012200083B000AF786039603B684FF400525A6079
:10123000002318460C37BD465DF8047B704780B428
:1012400083B000AF7860012318460C37BD465DF8C7
:10125000047B704780B485B000AFF860B9607A60F5
:10126000002318461437BD465DF8047B7047000024
:1012700080B586B000AF7860144A154BD31A7B61F5
:101280007B693B61134B1B68002B02D1114B124A47
:101290001A60104B1A687B6813443A699A4207D265
:1012A0000CF03AFF03460C221A604FF0FF3309E0BE
:1012B000084B1B68FB60074B1A687B681344054AA0
:1012C0001360FB6818461837BD4680BD00000C202F
:1012D000000400006C0200206834002080B400AFDD
:1012E000184BD3F88830174A43F47003C2F888309B
:1012F000154B01221A60144B0022DA61124B0022B6
:101300001A62114B00225A620F4B1B680E4A23F0DF
:10131000A85323F4102313600B4B00229A620A4B4C
:101320001B68094A23F480231360074B00221A65C7
:10133000044B4FF000629A6000BFBD465DF8047B2D
:10134000704700BF00ED00E0000C024680B485B09D
:1013500000AF78600A4BD3F88C2009497B681343AF
:10136000C1F88C30064BD3F88C207B681340FB60AF
:10137000FB6800BF1437BD465DF8047B704700BFB3
:10138000000C024680B485B000AF78600A4BD3F8F9
:10139000A02009497B681343C1F8A030064BD3F85D
:1013A000A0207B681340FB60FB6800BF1437BD467C
:1013B0005DF8047B704700BF000C024680B586B024
:1013C00000AF3B4600221A605A609A60DA601A61E8
:1013D0005A614FF40000FFF7D5FF0220FFF7B6FF78
:1013E0000120FFF7B3FF4FF400433B6003237B6012
:1013F00000233B613B461946094809F0A4FC4FF421
:1014000000433B6003237B6000233B613B4619465E
:10141000044809F098FC00BF1837BD4680BD00BFE6
:10142000000402420000024280B500AF224B234A72
:101430001A60214B4FF4E1325A601F4B00229A6030
:101440001D4B0022DA601C4B00221A611A4B0C2241
:101450005A61194B00229A61174B0022DA61164B30
:1014600000221A62144B00225A62134B00229A6225
:10147000114808F009FE0346002B01D0FFF7B0FD2C
:1014800000210D4809F04AFA0346002B01D0FFF76E
:10149000A7FD0021084809F07FFA0346002B01D080
:1014A000FFF79EFD044809F000FA0346002B01D027
:1014B000FFF796FD00BF80BD70020020003801409C
:1014C00080B5BAB000AF786007F1D40300221A608B
:1014D0005A609A60DA601A6107F11003C022002195
:1014E00018460CF0CBFD7B681B68264A934245D119
:1014F0004FF001024FF00003C7E9042300233B66CD
:1015000007F11003184605F061FD0346002B01D0DA
:10151000FFF766FD1C4BD3F8A4301B4A43F480430D
:10152000C2F8A430184BD3F8A43003F48043FB6016
:10153000FB68154BD3F88C30134A43F00103C2F813
:101540008C30114BD3F88C3003F00103BB60BB68C7
:101550004FF4C063C7F8D4300223C7F8D830022351
:10156000C7F8DC300323C7F8E0300723C7F8E430BE
:1015700007F1D4031946054801F00AF900BFE8371E
:10158000BD4680BD00380140000C0246000002420A
:1015900080B500AF154B164A1A60144B06221A711B
:1015A000124B0222DA71114B02225A720F4B0022A7
:1015B0009A720E4B0022DA720C4B00221A730B4BFC
:1015C00000225A73094B0022DA73084B00229A73E7
:1015D000064B00229A71054803F090F80346002B51
:1015E00001D0FFF7FDFC00BF80BD00BF0403002059
:1015F0000000044280B5BCB000AF786007F1DC03A6
:1016000000221A605A609A60DA601A6107F11803C2
:10161000C022002118460CF031FD7B681B683C4A53
:10162000934271D14FF480124FF00003C7E90623B3
:101630000023C7F8B43007F11803184605F0C6FCBC
:101640000346002B01D0FFF7CBFC324BD3F88C3094
:10165000304A43F00103C2F88C302E4BD3F88C3063
:1016600003F001037B617B694FF4C053C7F8DC30A2
:101670000223C7F8E0300023C7F8E4300323C7F89B
:10168000E8300A23C7F8EC3007F1DC03194622489A
:1016900001F07EF81F4BD3F88C301E4A43F4804390
:1016A000C2F88C301B4BD3F88C3003F480433B6181
:1016B0003B69184BD3F8943003F00403002B19D185
:1016C000144BD3F89430134A43F00403C2F8943017
:1016D000104BD3F8943003F00403FB60FB6804F074
:1016E00061F90C4BD3F894300A4A23F00403C2F892
:1016F000943001E004F056F900220521492000F061
:101700002BFD492000F042FD00BFF037BD4680BDF3
:1017100000000442000C024600000242DFF834D010
:10172000FFF7DCFD002103E00B4B5B584350043115
:101730000A480B4B42189A42F6D30A4A02E00023A9
:1017400042F8043B084B9A42F9D30CF0EBFCFFF74C
:10175000A4FBFEE700000C20D4E7000800000020F6
:10176000900000209000002068340020FEE7000078
:1017700080B500AF124B1B68114A43F480731360AD
:10178000032000F0DEFC05F00BFA02460D4B1B6A4D
:1017900003F00F030C49CB5C22FA03F30B4A1360EE
:1017A000042000F001FD0F20FFF740FC0346002B52
:1017B00001D0012302E0FFF719FC0023184680BD89
:1017C00000200240000C0246C4E60008040000208D
:1017D00080B400AF064B1B781A46064B1B681344B7
:1017E000044A136000BFBD465DF8047B704700BF2C
:1017F0000C000020E807002080B400AF034B1B68FA
:101800001846BD465DF8047B704700BFE80700201E
:1018100080B584B000AF7860FFF7EEFFB8607B68FA
:10182000FB60FB68B3F1FF3F05D00A4B1B781A46FB
:10183000FB681344FB6000BFFFF7DEFF0246BB6896
:10184000D31AFA689A42F7D800BF00BF1037BD46D6
:1018500080BD00BF0C00002080B483B000AF786072
:1018600039607B681B6823F470123B681A437B68FD
:101870001A6000BF0C37BD465DF8047B704700005E
:1018800080B485B000AF786039603B68FB607B68EE
:101890000A4A934204D1FB68013B03F00C03FB604E
:1018A0007B68DB6823F00C02FB681A437B68DA6014
:1018B00000BF1437BD465DF8047B70470010024638
:1018C00080B483B000AF786039607B681B6F23F40D
:1018D0007F5323F03F033A681A437B681A677B689B
:1018E0001B6F23F000433A68002A02D04FF00042F9
:1018F00000E000221A437B681A6700BF0C37BD4620
:101900005DF8047B704780B485B000AFF860B960C3
:101910007A60FB685A69BB6803F00403072101FA87
:1019200003F3DB431A40BB6803F00403796801FA50
:1019300003F31A43FB685A6100BF1437BD465DF8D4
:10194000047B704780B483B000AF78607B689B688D
:1019500023F0204323F03F037A68936000BF0C37E5
:10196000BD465DF8047B704780B483B000AF7860FB
:101970007B689B6803F00053B3F1005F01D1012342
:1019800000E0002318460C37BD465DF8047B704725
:1019900080B483B000AF78607B689B6823F010430D
:1019A00023F03F0343F080527B689A6000BF0C37FE
:1019B000BD465DF8047B704780B483B000AF7860AB
:1019C0007B689B6803F08053B3F1805F01D10123F2
:1019D00000E0002318460C37BD465DF8047B7047D5
:1019E00080B483B000AF78607B689B6803F001032C
:1019F000012B01D1012300E0002318460C37BD461E
:101A00005DF8047B704780B483B000AF78607B687A
:101A10009B6803F00403042B01D1012300E00023A1
:101A200018460C37BD465DF8047B704780B483B020
:101A300000AF78607B689B6803F00803082B01D136
:101A4000012300E0002318460C37BD465DF8047BF7
:101A50007047000080B58AB000AF7860002387F837
:101A6000273000233B620023FB617B68002B01D100
:101A70000123B3E27B681B69002B03D07B681B68E2
:101A80008B4A93427B689B6F002B09D17868FEF7E5
:101A9000C7FD7B680022DA677B68002283F8742028
:101AA0007B681B681846FFF75FFF0346002B04D0D6
:101AB0007B681B681846FFF745FF7B681B68184664
:101AC000FFF77AFF0346002B15D17B681B68184689
:101AD000FFF75EFF774B1B689B09774AA2FB032346
:101AE0009B0901335B00FB6002E0FB68013BFB608C
:101AF000FB68002BF9D17B681B681846FFF75CFF79
:101B00000346002B0ED17B689B6F43F010027B686D
:101B10009A677B68DB6F43F001027B68DA67012319
:101B200087F827307B681B681846FFF76CFFB861A1
:101B30007B689B6F03F01003002B40F04482BB696D
:101B4000002B40F040827B689B6F23F4817343F04D
:101B500002027B689A677B681B681846FFF740FFA4
:101B60000346002B40D17B681B68514A934228D022
:101B70007B681B68514A934209D15048FFF730FFF8
:101B80000346002B0CBF01230023DBB208E04848CA
:101B9000FFF726FF0346002B0CBF01230023DBB217
:101BA000002B21D07B681B68444A934201D1444AF0
:101BB00000E0444A7B685B6819461046FFF74CFE1C
:101BC00012E07B681A687B689B6819461046FFF72D
:101BD00057FE3C4B1B6823F470127B685B6803F470
:101BE0007013384913430B607B681B68304A93427B
:101BF00010D07B6893F824305A037B685B6C1A43DF
:101C00007B689B681A437B6893F82C301B04134352
:101C10003B6230E07B681B7F9A037B6893F824303B
:101C20005B0313437A68526C002A02D04FF480524F
:101C300000E000221A437B685B691A437B681B69DA
:101C4000002B04DA7B681B6923F0004301E04FF4AA
:101C500000131A437B681B6818498B4203D17B68C9
:101C600093F8403003E07B6893F840305B00134307
:101C70003A6A13433B627B6893F82C30012B2FD1D7
:101C80007B681B680A4A934207D07B681B6B013B49
:101C90005B043A6A13433B6222E07B6893F824308A
:101CA000002B11D13B6A43F480333B6218E000BF44
:101CB0000010024604000020632D3E050080024211
:101CC00008830242081302467B689B6F43F02002A0
:101CD0007B689A677B68DB6F43F001027B68DA6799
:101CE0007B681B68924A934218D07B685B6B002B21
:101CF00009D07B685B6B03F478727B689B6B134342
:101D00003A6A13433B627B681B68DA68894B13406D
:101D10007A681268396A0B43D36031E07B685B6B89
:101D2000002B09D07B685B6B03F4E0727B689B6BD4
:101D300013433A6A13433B627B681B68DA687E4B45
:101D400013407A681268396A0B43D3607B681B6A58
:101D5000002B08D07B681B68596C7B681A6A7B680B
:101D60001B680A435A647B68DB6E002B08D07B68D3
:101D70001B68596C7B68DA6E7B681B680A435A647F
:101D80007B681B686A4A934200F093807B681B68FB
:101D90001846FFF738FE78617B681B681846FFF726
:101DA00045FE38617B69002B61D13B69002B5ED118
:101DB0007B681B7F9A037B681B6860498B4202D15A
:101DC0007B68DB6B02E07B68DB6B5B0013433B6291
:101DD0007B681B68DB6823F4804323F003037A6885
:101DE0001268396A0B43D3607B68DB68002B07D02D
:101DF0007B681A687B68DB6819461046FFF760FD50
:101E00007B6893F85430012B1ED17B685B6B002BF1
:101E10007B681B681A694A4B13407A68926D1104FB
:101E20007A68D26D11437A68126E11437A68526EE5
:101E300011437A68926E92080A431A437B681B68C2
:101E400042F001021A6107E07B681B681A697B682F
:101E50001B6822F001021A617B681B681B6923F072
:101E600070417B681A6D7B681B680A431A617B6846
:101E70001B69012B0CD17B681B681B6B23F00F01C6
:101E80007B689B6A5A1E7B681B680A431A6307E0DB
:101E90007B681B681A6B7B681B6822F00F021A6351
:101EA0007B689B6F23F0030343F001027B689A6712
:101EB00092E07B6893F85430012B11D17B689A6DC6
:101EC0007B68DB6D1A437B681B6E1A437B689B6ED5
:101ED0001343FA691343FB61FB6943F00103FB61A0
:101EE0007B681B681A69174B13407A681268F96996
:101EF0000B4313617B6818687B689B6C1A46002152
:101F0000FFF701FD7B6818687B68DB6C1A466FF091
:101F1000FB01FFF7F8FC7B681B69002B14D17B6881
:101F20001B689A6A7B681B6862F00F029A6224E061
:101F30000010024613C0F0FF0D80DEFF0080024259
:101F40001EF800FC02FCFFF77B681B69B3F5001F5D
:101F500013D17B681B689B6A7B689B6A013B9B0073
:101F600003F01C036FF00F0202FA03F17B68D3F851
:101F700088207B681B680A439A627B681B68DA6862
:101F8000184B13403A6A9A420BD17B680022DA67F9
:101F90007B689B6F23F0030343F001027B689A6721
:101FA0001AE07B689B6F23F0120343F010027B68FA
:101FB0009A677B68DB6F43F001027B68DA67012375
:101FC00087F8273008E07B689B6F43F010027B683E
:101FD0009A67012387F8273097F827301846283763
:101FE000BD4680BDF3FF3F8380B485B000AF78600D
:101FF0007B6803F00703FB600C4BDB68BB60BA68CF
:102000004FF6FF031340BB60FB681A02BB68134323
:1020100043F0BF6343F40033BB60044ABB68D36042
:1020200000BF1437BD465DF8047B704700ED00E04B
:1020300080B400AF044BDB681B0A03F007031846AB
:10204000BD465DF8047B704700ED00E080B483B0CE
:1020500000AF0346FB7197F90730002B0BDBFB79D0
:1020600003F01F02074997F907305B09012000FAC6
:1020700002F241F8232000BF0C37BD465DF8047B17
:10208000704700BF00E100E080B483B000AF0346BA
:102090003960FB7197F90730002B0ADB3B68DAB235
:1020A0000C4997F907301201D2B20B4483F8002390
:1020B0000AE03B68DAB20849FB7903F00F03043BFE
:1020C0001201D2B20B441A7600BF0C37BD465DF840
:1020D000047B704700E100E000ED00E080B489B0CF
:1020E00000AFF860B9607A60FB6803F00703FB613A
:1020F000FB69C3F10703042B28BF0423BB61FB6901
:102100000433062B02D9FB69033B00E000237B610B
:102110004FF0FF32BB6902FA03F3DA43BB681A409F
:102120007B699A404FF0FF317B6901FA03F3D94391
:102130007B680B40134318462437BD465DF8047B8B
:10214000704780B582B000AF78607868FFF74CFFC9
:1021500000BF0837BD4680BD80B586B000AF0346DE
:10216000B9607A60FB73FFF763FF78617A68B968DA
:102170007869FFF7B3FF024697F90F30114618460A
:10218000FFF782FF00BF1837BD4680BD80B582B023
:1021900000AF0346FB7197F907301846FFF756FF6B
:1021A00000BF0837BD4680BD80B483B000AF786003
:1021B0007B68042B44D801A252F823F0DF210008E9
:1021C000FD2100081F22000841220008D12100083B
:1021D0001F4B1B681E4A43F00403136031E01C4B85
:1021E0001B681B4A23F0040313601A4BD3F8E0303A
:1021F000184A23F44003C2F8E03022E0144B1B6875
:10220000134A23F004031360124BD3F8E03023F495
:102210004003104A43F48003C2F8E03011E00C4B55
:102220001B680B4A23F0040313600A4BD3F8E03019
:1022300023F44003074A43F40003C2F8E03000E00F
:1022400000BF00BF0C37BD465DF8047B704700BF80
:1022500010E000E0000C024680B483B000AF78606C
:102260007B68002B01D1012319E07B6893F854307F
:10227000DBB2022B04D07B6820229A6501230EE09A
:102280007B68042283F854207B681B685B697A684A
:10229000126843F4005343F00403536100231846CB
:1022A0000C37BD465DF8047B704780B483B000AF47
:1022B00078607B6893F85430DBB218460C37BD4623
:1022C0005DF8047B704780B483B000AF78607B68B2
:1022D0001B681B691B0CDBB218460C37BD465DF84A
:1022E000047B704780B586B000AFF860B9607A6053
:1022F0001F4B1B78012B01D1022334E01C4B012220
:102300001A701B4B00225A604FF47A7000F0BAF832
:102310000346FB75FB7D002B21D1154AFB689360BA
:10232000144B3B61FB6823F00043012B04D1796817
:10233000B86800F0EDF803E07968B86800F024F9B7
:102340004FF47A7000F09EF80346FB753B691A68FB
:10235000FB6823F00043DB431A403B691A60044BDF
:1023600000221A70FB7D18461837BD4680BD00BF9D
:10237000100000202820024080B483B000AF00236A
:10238000FB710B4B9B6A002B0BDA094B094A9A60D5
:10239000074B094A9A60064B9B6A002B01DA01231E
:1023A000FB71FB7918460C37BD465DF8047B70471E
:1023B0000020024023016745AB89EFCD80B483B094
:1023C00000AF0123FB71094B9B6A084A43F00043AD
:1023D0009362064B9B6A002B01DA0023FB71FB79A9
:1023E00018460C37BD465DF8047B7047002002405C
:1023F00080B400AF0C4B9B6A03F08043002B0DD0E0
:10240000094B0A4A1A61084B094A1A61064B9B6A32
:1024100003F08043002B01D0012300E00023184685
:10242000BD465DF8047B7047002002403B2A190836
:102430007F6E5D4C80B400AF094B9B6A084A43F045
:1024400080439362064B9B6A03F08043002B01D0CC
:10245000002300E001231846BD465DF8047B704769
:102460000020024080B400AF054B9B6A044A43F051
:102470000063936201231846BD465DF8047B7047F4
:102480000020024080B586B000AF7860FFF7B4F955
:1024900002467B6813447B611B4B3B610BE07B680E
:1024A000B3F1FF3F07D0FFF7A7F902467B699342DC
:1024B00001D8032323E03B691B6803F44033002B5E
:1024C000EDD13B691A6842F2FA031340FB60FB68E6
:1024D000002B0AD00D4B5A68FB6813430B4A53601C
:1024E0003B69FA681A60012309E03B691B6803F045
:1024F0000103002B02D03B6901221A600023184619
:102500001837BD4680BD00BF2020024010000020CB
:1025100080B48BB000AF78603960042387F827302F
:102520007B683B623B68FB61164BBB61BB691B6808
:1025300043F00102BB691A60EFF310833B613B6912
:102540007B6172B600BFFB691A683B6A1A603B6A1E
:1025500004333B62FB690433FB6197F82730013B8E
:1025600087F8273097F82730002BECD17B69FB6088
:10257000FB6883F3108800BF00BF2C37BD465DF8B1
:10258000047B70472820024080B48BB000AF786095
:102590003960202387F827307B683B623B68FB610A
:1025A000174BBB61BB691B6843F4804343F00103D5
:1025B000BA691360EFF310833B613B697B6172B6CC
:1025C00000BFFB691A683B6A1A603B6A04333B62CE
:1025D000FB690433FB6197F82730013B87F827300C
:1025E00097F82730002BECD17B69FB60FB6883F305
:1025F000108800BF00BF2C37BD465DF8047B7047D4
:102600002820024080B586B000AF78603960334B37
:102610001B78012B01D102235CE0304B01221A70A0
:102620002E4B00225A604FF47A70FFF72BFF0346BF
:10263000FB75FB7D002B49D17B681B68274A9360A3
:10264000274BFB607B681B6823F0004348F20402C1
:1026500093420BD17B685B68184600F043F84FF457
:102660007A70FFF70FFF0346FB7525E03B684FF0DC
:10267000FF321A607B689B683B6115E07B685B6892
:102680001946386900F054F84FF47A70FFF7FAFEF3
:102690000346FB75FB7D002B03D03B683A691A604B
:1026A0000AE03B6901333B617B689A687B68DB68C1
:1026B00013443A699A42E1D3FB681A687B681B6845
:1026C00023F00043DB431A40FB681A60034B0022EF
:1026D0001A70FB7D18461837BD4680BD10000020DB
:1026E0002820024080B485B000AF78600F4BFB60BB
:1026F0007B6803F00103002B07D0FB681B6843F4E1
:10270000803343F00403FA6813607B6803F002032C
:10271000002B05D0FB681B6843F4C032FB681A60CD
:1027200000BF1437BD465DF8047B70472820024087
:1027300080B485B000AF78603960144BFB603B68B3
:1027400003F00103002B06D0FB681B6823F4006232
:10275000FB681A6005E0FB681B6843F40062FB68D5
:102760001A60FB681B6823F4813323F4FD737A68D5
:10277000D200134343F4803343F00203FA6813603A
:1027800000BF1437BD465DF8047B70472820024027
:1027900080B489B000AF7860396000237B617B68CA
:1027A0003B61BAE13B681A6801217B6901FA03F3D6
:1027B0001340FB607B69BB61FB68002B00F0AA81C2
:1027C0007B68554A93425DD17B681B68FB6101229F
:1027D0007B6902FA03F3DB43FA691340FB613B6850
:1027E0005B6803F001027B6902FA03F3FA691343A1
:1027F000FB617B68FA691A60484A7B6952F833309A
:102800003B61464A7B69DB0013445B68BB61BB6983
:10281000DA083B69083253F82230FB61BB6903F0E8
:1028200007039B000F2202FA03F3DB43FA6913400C
:10283000FB61BB6903F007039B000B2202FA03F361
:10284000FA691343FB61BB69DA083B690832F9692D
:1028500043F822103B691B68FB61BB695B000322E4
:1028600002FA03F3DB43FA691340FB61BB695B00C7
:10287000022202FA03F3FA691343FB613B69FA6926
:102880001A6067E03B685B68022B03D03B685B68BB
:10289000122B45D17B69DA087B68083253F8223065
:1028A000FB617B6903F007039B000F2202FA03F32D
:1028B000DB43FA691340FB613B681B6903F00F02BD
:1028C0007B6903F007039B0002FA03F3FA691343E1
:1028D000FB617B69DA087B680832F96943F82210EA
:1028E0003B691B68FB61BB695B00032202FA03F3CF
:1028F000DB43FA691340FB613B685B6803F003024A
:10290000BB695B0002FA03F3FA691343FB613B699D
:10291000FA691A601EE000BF000002461CE70008CA
:102920003B691B68FB61BB695B00032202FA03F38E
:10293000DB43FA691340FB613B685B6803F0030209
:10294000BB695B0002FA03F3FA691343FB613B695D
:10295000FA691A603B685B68012B0BD03B685B68C7
:10296000022B07D03B685B68112B03D03B685B6888
:10297000122B30D13B699B68FB61BB695B00032272
:1029800002FA03F3DB43FA691340FB613B68DA6840
:10299000BB695B0002FA03F3FA691343FB613B690D
:1029A000FA699A603B695B68FB610122BB6902FAC4
:1029B00003F3DB43FA691340FB613B685B681B0967
:1029C00003F00102BB6902FA03F3FA691343FB61E6
:1029D0003B69FA695A603B685B68032B17D03B6917
:1029E000DB68FB61BB695B00032202FA03F3DB4394
:1029F000FA691340FB613B689A68BB695B0002FAA5
:102A000003F3FA691343FB613B69FA69DA603B68D7
:102A10005B6803F08053002B7CD0474A7B699B089E
:102A2000183352F82330FB617B6903F00303DB00AA
:102A30000F2202FA03F3DB43FA691340FB617B6860
:102A40009A0A3E4B13407A6902F00302D200934087
:102A5000FA691343FB6138497B699B081833FA69AB
:102A600041F82320344B1B68FB61FB68DB43FA69A8
:102A70001340FB613B685B6803F48013002B03D0B9
:102A8000FA69FB681343FB612B4AFB6913602A4B0D
:102A90005B68FB61FB68DB43FA691340FB613B68E1
:102AA0005B6803F40013002B03D0FA69FB6813433F
:102AB000FB61214AFB6953601F4BD3F88430FB61F3
:102AC000FB68DB43FA691340FB613B685B6803F416
:102AD0000033002B03D0FA69FB681343FB61164AED
:102AE000FB69C2F88430144BD3F88030FB61FB687B
:102AF000DB43FA691340FB613B685B6803F4803396
:102B0000002B03D0FA69FB681343FB610A4AFB6997
:102B1000C2F880307B6901337B613B681A687B694E
:102B200022FA03F3002B7FF43DAE00BF00BF243731
:102B3000BD465DF8047B7047002002467F7F2F0072
:102B400080B483B000AF78600B467B8013467B7007
:102B50007B78002B03D07A887B689A6102E07A88C0
:102B60007B689A6200BF0C37BD465DF8047B7047F6
:102B700080B485B000AF78600B467B807B685B6972
:102B8000FB607A88FB6813401A04FB68D9437B8892
:102B90000B401A437B689A6100BF1437BD465DF84D
:102BA000047B704780B582B000AF78607B68002BF3
:102BB00001D101238DE07B6893F84130DBB2002B1B
:102BC00006D17B68002283F840207868FDF7B4FEC8
:102BD0007B68242283F841207B681B681A687B6825
:102BE0001B6822F001021A607B685A687B681B68C8
:102BF00022F070621A617B681B689A687B681B68A8
:102C000022F400429A607B68DB68012B07D17B6865
:102C10009A687B681B6842F400429A6006E07B6811
:102C20009A687B681B6842F404429A607B68DB68A0
:102C3000022B08D17B681B685A687B681B6842F4CA
:102C400000625A6007E07B681B685A687B681B68F3
:102C500022F400625A607B681B685B687A681268BD
:102C600043F0007343F4004353607B681B68DA68E9
:102C70007B681B6822F40042DA607B681A697B6813
:102C80005B6942EA03017B689B691A027B681B68E7
:102C90000A43DA607B68D9697B681A6A7B681B68BB
:102CA0000A431A607B681B681A687B681B6842F0DD
:102CB00001021A607B6800225A647B68202283F834
:102CC00041207B6800221A637B68002283F842203F
:102CD000002318460837BD4680BD000080B586B089
:102CE00000AFF860B9603B601346FB80FB6893F867
:102CF0004130DBB203F02803282B40F09880BB68FA
:102D0000002B02D0FB88002B05D1FB684FF400722A
:102D10005A6401238CE048F20101F86801F0C8FB15
:102D2000FB6893F84030012B01D1022380E0FB685F
:102D3000012283F84020FB6893F84130DBB22A2B54
:102D40002AD10221F86801F0B3FBFB681B681B68FD
:102D500003F40043B3F5004F1ED1FB681B681A68EB
:102D6000FB681B6822F400421A60FB68DB6B002BD7
:102D700012D0FB68DB6B304ADA66FB68DB6B184607
:102D8000FFF76AFA0346002B06D0FB68DB6BDB6EAD
:102D9000FA68D26B10469847FB68292283F84120D5
:102DA000FB68202283F84220FB6800225A64FB68FB
:102DB0001B685A68FB681B6822F400425A60FB6873
:102DC000BA685A62FB68FA885A85FB685B8D9AB2CA
:102DD000FB681A85FB683A68DA62FB68174A5A632F
:102DE000FB681B689B6903F00803082B0CBF0123D9
:102DF0000023DBB2FB75FB681B689B691B0CDBB215
:102E000003F00103DBB2012B06D1FB7D002B03D0C5
:102E1000FB681B680822DA61FB68002283F8402007
:102E200048F20101F86801F0BFFA002300E0012335
:102E300018461837BD4680BD074300084B310008CF
:102E400080B586B000AFF860B9603B601346FB8088
:102E5000FB6893F84130DBB203F02803282B40F0E5
:102E60009880BB68002B02D0FB88002B05D1FB6843
:102E70004FF400725A6401238CE048F20201F868B2
:102E800001F016FBFB6893F84030012B01D10223BF
:102E900080E0FB68012283F84020FB6893F8413012
:102EA000DBB2292B2AD10121F86801F001FBFB6874
:102EB0001B681B6803F48043B3F5804F1ED1FB6889
:102EC0001B681A68FB681B6822F480421A60FB6862
:102ED0009B6B002B12D0FB689B6B304ADA66FB6859
:102EE0009B6B1846FFF7B8F90346002B06D0FB682A
:102EF0009B6BDB6EFA68926B10469847FB682A2240
:102F000083F84120FB68202283F84220FB680022DE
:102F10005A64FB681B685A68FB681B6822F400420D
:102F20005A60FB68BA685A62FB68FA885A85FB687F
:102F30005B8D9AB2FB681A85FB683A68DA62FB68B7
:102F4000174A5A63FB681B689B6903F00803082B48
:102F50000CBF01230023DBB2FB75FB681B689B6978
:102F60001B0CDBB203F00103DBB2002B06D1FB7DAF
:102F7000002B03D0FB681B680822DA61FB68002283
:102F800083F8402048F20201F86801F00DFA0023AE
:102F900000E0012318461837BD4680BD07430008EE
:102FA0004B31000880B582B000AF78607B6893F841
:102FB0004130DBB2202B0DD17B68282283F84120E1
:102FC0007B68074A5A634FF40041786801F0ECF9D6
:102FD000002300E0022318460837BD4680BD00BF2D
:102FE0004B31000880B584B000AF78607B681B6807
:102FF0009B69FB607B681B681B68BB607B685B6BC5
:10300000002B05D07B685B6BBA68F96878689847D5
:1030100000BF1037BD4680BD80B586B000AF786078
:103020007B681B689B697B617B681B681B683B61D5
:103030007B6903F48073002B0FD03B6903F080039E
:10304000002B0AD07B685B6C43F001027B685A64FA
:103050007B681B684FF48072DA617B6903F48063DC
:10306000002B0FD03B6903F08003002B0AD07B6854
:103070005B6C43F008027B685A647B681B684FF402
:103080008062DA617B6903F40073002B0FD03B6927
:1030900003F08003002B0AD07B685B6C43F00202D4
:1030A0007B685A647B681B684FF40072DA617B6846
:1030B0005B6CFB60FB6803F00B03002B03D0F9682B
:1030C000786800F0E5FF00BF1837BD4680BD80B4CA
:1030D00083B000AF786000BF0C37BD465DF8047B5D
:1030E000704780B483B000AF786000BF0C37BD4636
:1030F0005DF8047B704780B483B000AF786000BF98
:103100000C37BD465DF8047B704780B483B000AFD8
:10311000786000BF0C37BD465DF8047B704780B413
:1031200083B000AF786000BF0C37BD465DF8047B0C
:10313000704780B483B000AF78607B685B6C1846E2
:103140000C37BD465DF8047B704780B586B000AF94
:10315000F860B9607A60FB68DB6A7B61BB683B61E1
:10316000FB6893F84030012B01D10223E2E0FB68B9
:10317000012283F840203B6903F02003002B09D093
:103180007B6803F02003002B04D03969F86800F055
:10319000B5FDCAE03B6903F01003002B4BD07B6800
:1031A00003F01003002B46D0FB685B8D9BB2002B15
:1031B00028D1FB6893F84130DBB2282B08D17B691A
:1031C000B3F1007F04D13969F86800F00DFF31E0F8
:1031D000FB6893F84130DBB2292B0ED17B6913F5E4
:1031E000803F0AD0FB681B681022DA61F86801F0A2
:1031F00066F8F86800F05DFC1CE0FB681B681022B4
:10320000DA618FE0FB681B681022DA61FB685B6C97
:1032100043F00402FB685A647B69002B03D07B698E
:10322000B3F1807F7ED1FB685B6C1946F86800F0D3
:103230002FFF77E076E03B6903F00403002B2FD0EB
:103240007B6803F00403002B2AD0FB685B8D9BB2E4
:10325000002B18D0FB681B685A6AFB685B6AD2B205
:103260001A70FB685B6A5A1CFB685A62FB681B8D0C
:10327000013B9AB2FB681A85FB685B8D9BB2013BF0
:103280009AB2FB685A85FB685B8D9BB2002B4BD1D1
:103290007B6913F5803F47D0F86800F00AFC43E0F3
:1032A0003B6903F00803002B09D07B6803F0080397
:1032B000002B04D03969F86800F03AFB35E03B692F
:1032C00003F00203002B30D07B6803F00203002BD5
:1032D0002BD0FB685B8D9BB2002B18D0FB685B6A20
:1032E0001A78FB681B689A62FB685B6A5A1CFB6869
:1032F0005A62FB685B8D9BB2013B9AB2FB685A85B0
:10330000FB681B8D013B9AB2FB681A850DE07B6957
:10331000B3F1807F02D07B69002B06D1F86800F002
:10332000C8FB02E000BF00E000BFFB68002283F89A
:103330004020002318461837BD4680BD80B588B0B0
:1033400002AFF860B9607A60FB6893F84030012BF7
:1033500001D10223D9E0FB68012283F84020BB6839
:1033600003F01003002B16D07B6803F01003002B32
:1033700011D0FB681B681022DA61FB685B6C43F0BC
:103380000402FB685A642021F86801F00DF8F8681F
:1033900000F095FFB4E0BB6803F08003002B71D010
:1033A0007B6803F04003002B6CD0FB681B681A6835
:1033B000FB681B6822F040021A60FB685B8D9BB2C1
:1033C000002B4ED0FB681B685B689BB2C3F30903FC
:1033D0007B82FB685B8D9BB2FF2B06D9FB68FF22CB
:1033E0001A854FF080737B6110E0FB685B8D9AB2A9
:1033F000FB681A85FB68DB6A13F5803F03D0FB6826
:10340000DB6A7B6102E04FF000737B61FB681B8D20
:10341000DAB2798A002300937B69F86800F092FFA2
:10342000FB685B8D9AB2FB681B8DD31A9AB2FB685E
:103430005A85FB6893F84130DBB2222B08D1FB6838
:103440001B681A68FB681B6842F400421A6057E068
:10345000FB681B681A68FB681B6842F480421A60AC
:103460004EE0FB681B685B6803F00073B3F1007FFC
:1034700003D0F86800F0E0FA42E04021F86800F07C
:1034800007FE3DE0BB6803F04003002B28D07B68BB
:1034900003F04003002B23D0FB685B8D9BB2002B15
:1034A00019D1FB681B685B6803F00073B3F1007F00
:1034B00025D0FB68DB6A13F5803F08D1FB681B68E9
:1034C0005A68FB681B6842F480425A6017E0F8684B
:1034D00000F0B2FA13E04021F86800F0D9FD0EE0E8
:1034E000BB6803F02003002B0AD07B6803F02003A5
:1034F000002B05D0B968F86800F038FB00E000BF89
:10350000FB68002283F84020002318461837BD4688
:1035100080BD000080B588B002AFF860B9607A6005
:103520008D4B7B61FB6893F84030012B01D1022366
:103530000EE1FB68012283F84020BB6803F0100312
:10354000002B16D07B6803F01003002B11D0FB6812
:103550001B681022DA61FB685B6C43F00402FB68B5
:103560005A642021F86800F01FFFF86800F0A7FEF9
:10357000E9E0BB6803F00203002B0ED07B6803F088
:103580000203002B09D0FB681B68FA68126D9A626F
:10359000FB684FF0FF321A65D5E0BB6803F080038B
:1035A000002B5FD07B6803F04003002B5AD0012131
:1035B000F86800F07DFF1021F86800F0F5FEFB6868
:1035C0005B8D9BB2002B48D0FB685B8D9BB2FF2BC1
:1035D00010D9FB68FF221A85FB68DB6C99B2FB6887
:1035E0001B8DDAB2002300934FF08073F86800F06F
:1035F000A9FE11E0FB685B8D9AB2FB681A85FB6837
:10360000DB6C99B2FB681B8DDAB2002300934FF09C
:103610000073F86800F096FEFB685B8D9AB2FB6859
:103620001B8DD31A9AB2FB685A85FB6893F8413018
:10363000DBB2222B08D1FB681B681A68FB681B6889
:1036400042F400421A607EE0FB681B681A68FB685F
:103650001B6842F480421A6075E04021F86800F06F
:1036600017FD70E0BB6803F04003002B5DD07B6862
:1036700003F04003002B58D00121F86800F018FF38
:103680001021F86800F090FEFB6893F84130DBB23F
:10369000222B01D1314B7B61FB685B8D9BB2FF2BF1
:1036A00010D9FB68FF221A85FB68DB6C99B2FB68B6
:1036B0001B8DDAB27B6900934FF08073F86800F0DD
:1036C00041FE11E0FB685B8D9AB2FB681A85FB68CE
:1036D000DB6C99B2FB681B8DDAB27B6900934FF00B
:1036E0000073F86800F02EFEFB685B8D9AB2FB68F1
:1036F0001B8DD31A9AB2FB685A85FB6893F8413048
:10370000DBB2222B08D1FB681B681A68FB681B68B8
:1037100042F400421A6016E0FB681B681A68FB68F6
:103720001B6842F480421A600DE0BB6803F020037E
:10373000002B08D07B6803F02003002B03D0B9686E
:10374000F86800F013FAFB68002283F84020002399
:1037500018461837BD4680BD002000800024008038
:1037600090B589B000AFF860B9607A60FB68DB6A39
:10377000BB610023FB61FB6893F84030012B01D152
:103780000223D1E0FB68012283F84020BB6803F0EC
:103790002003002B09D07B6803F02003002B04D00A
:1037A000B968F86800F0AAFAB9E0BB6803F0100342
:1037B000002B00F0A6807B6803F01003002B00F0C4
:1037C000A0807B6803F48043002B05D17B6803F461
:1037D0000043002B00F08E80FB68DB6B002B14D0C5
:1037E0007B6803F40043002B0FD0FB68DB6B1B6886
:1037F0009B6C9CB2FB68DB6B1846FEF764FD0346CE
:103800002344002B01D10123FB61FB689B6B002B40
:1038100014D07B6803F48043002B0FD0FB689B6BB4
:103820001B689B6C9CB2FB689B6B1846FEF74BFDBC
:1038300003462344002B01D10123FB61FB69012BCB
:1038400028D1FB6893F84130DBB2282B08D1BB6943
:10385000B3F1007F04D1B968F86800F0C5FB48E017
:10386000FB6893F84130DBB2292B0ED1BB6913F50D
:10387000803F0AD0FB681B681022DA61F86800F00C
:103880001EFDF86800F015F933E0FB681B68102294
:10389000DA6134E0FB681B681022DA61FB685B6C5C
:1038A00043F00402FB685A64FB6893F84130FB75EF
:1038B000BB69002B03D0BB69B3F1807F1FD1FB7DB7
:1038C000212B02D0FB7D292B03D1FB6821221A6317
:1038D00008E0FB7D222B02D0FB7D2A2B02D1FB6866
:1038E00022221A63FB685B6C1946F86800F0D0FB73
:1038F00005E004E0FB681B681022DA610FE000BFFE
:103900000DE0BB6803F00803002B08D07B6803F0D0
:103910000803002B03D0B968F86800F009F8FB68C9
:10392000002283F84020002318462437BD4690BD6E
:1039300080B584B000AF786039607B6893F841301F
:10394000DBB203F02803282B6AD17B681B689B69D4
:103950001B0CDBB203F00103FB737B681B689B69E4
:103960001B0C9BB203F0FE03BB817B681B689B684A
:103970009BB2C3F309037B817B681B68DB689BB246
:1039800003F0FE033B817B68DB68022B38D17B8927
:10399000DB099AB2BB8953409BB203F00603002BAC
:1039A0001CD17B89BB817B689B6C5A1C7B689A64A9
:1039B0007B689B6C022B3BD17B6800229A647B68FE
:1039C0001B680822DA617B68002283F84020BA89EC
:1039D000FB7B19467868FDF77DF829E03B89BB81C0
:1039E0004FF40041786800F063FD7B68002283F8A3
:1039F0004020BA89FB7B19467868FDF76BF817E021
:103A00004FF40041786800F053FD7B68002283F892
:103A10004020BA89FB7B19467868FDF75BF807E020
:103A20007B681B680822DA617B68002283F84020EB
:103A300000BF1037BD4680BD80B582B000AF786052
:103A40007B68002283F842207B6893F84130DBB228
:103A5000212B15D17B68202283F841207B6811221D
:103A60001A637B6800225A630121786800F020FD08
:103A70007B68002283F840207868FFF728FB14E079
:103A80007B68202283F841207B6812221A637B68BE
:103A900000225A630221786800F00AFD7B68002248
:103AA00083F840207868FFF71CFB00BF0837BD464D
:103AB00080BD80B584B000AF78607B681B681B68F0
:103AC000FB607B68002283F84220FB6803F480439C
:103AD000002B08D07B681B681A687B681B6822F47F
:103AE00080421A600CE0FB6803F40043002B07D00F
:103AF0007B681B681A687B681B6822F400421A60A6
:103B00007B6893F84130DBB2292B12D17B682822E5
:103B100083F841207B6821221A630121786800F034
:103B2000C7FC7B68002283F840207868FDF704F822
:103B300017E07B6893F84130DBB22A2B11D17B6808
:103B4000282283F841207B6822221A6302217868A8
:103B500000F0AEFC7B68002283F840207868FDF717
:103B60000DF800BF1037BD4680BD000080B586B09F
:103B700000AF786039603B687B617B681B682022FE
:103B8000DA617B6893F84130DBB2212B07D1012148
:103B9000786800F08DFC7B6811221A630CE07B686A
:103BA00093F84130DBB2222B06D10221786800F075
:103BB0007FFC7B6812221A637B681B6859687B68EC
:103BC0001A684C4B0B4053607B6800225A637B6839
:103BD000494ADA627B6903F01003002B09D07B6845
:103BE0001B681022DA617B685B6C43F004027B681F
:103BF0005A647B6893F84130DBB2602B0AD17B6951
:103C000003F00403002B05D07B681B685B6ADBB202
:103C1000FB60FB68786800F052FB7B685B6C3B6183
:103C20007B6893F84130DBB2602B02D03B69002BFC
:103C300006D07B685B6C1946786800F029FA54E07E
:103C40007B6893F84130DBB2212B24D17B682022A2
:103C500083F841207B6800221A637B6893F8423026
:103C6000DBB2402B0BD17B68002283F842207B68BB
:103C7000002283F840207868FFF73DFA35E07B6842
:103C8000002283F842207B68002283F84020786875
:103C9000FFF71DFA29E07B6893F84130DBB2222B55
:103CA00023D17B68202283F841207B6800221A639D
:103CB0007B6893F84230DBB2402B0BD17B6800224B
:103CC00083F842207B68002283F840207868FFF761
:103CD0001CFA0AE07B68002283F842207B680022FD
:103CE00083F840207868FFF7FCF900BF1837BD461D
:103CF00080BD00BF00E800FE0000FFFF90B587B068
:103D000000AF786039607B681B681B683B613B686B
:103D10007B617B68DB6AFB607B6893F84130FB72F8
:103D20007B681B682022DA61FB7A212B02D0FB7AA8
:103D3000292B08D148F20101786800F0B9FB7B68B3
:103D400021221A6319E0FB7A222B02D0FB7A2A2B5C
:103D500008D148F20201786800F0AAFB7B682222B1
:103D60001A630AE0FB7A282B07D148F2030178682E
:103D700000F09EFB7B6800221A637B681B685A6810
:103D80007B681B6842F400425A607B681B68596874
:103D90007B681A68924B0B405360786800F08FFA8A
:103DA0003B6903F48043002B1CD07B681B681A68B6
:103DB0007B681B6822F480421A607B689B6B002B37
:103DC00031D07B689B6B1B689B6C9CB27B689B6B48
:103DD0001846FEF778FA03469BB223449AB27B68F2
:103DE0005A8520E03B6903F40043002B1BD07B681D
:103DF0001B681A687B681B6822F400421A607B68A3
:103E0000DB6B002B0FD07B68DB6B1B689B6C9CB261
:103E10007B68DB6B1846FEF756FA03469BB22344D9
:103E20009AB27B685A857B6903F00403002B20D08B
:103E30007B6923F004037B617B681B685A6A7B689B
:103E40005B6AD2B21A707B685B6A5A1C7B685A62E2
:103E50007B681B8D002B0CD07B681B8D013B9AB2BD
:103E60007B681A857B685B8D9BB2013B9AB27B684D
:103E70005A857B685B8D9BB2002B05D07B685B6CA1
:103E800043F004027B685A647B6903F01003002B43
:103E900049D03B6903F01003002B44D07B685B8D55
:103EA0009BB2002B28D17B6893F84130DBB2282BE2
:103EB00008D1FB68B3F1007F04D17969786800F01C
:103EC00093F830E07B6893F84130DBB2292B0ED1B8
:103ED000FB6813F5803F0AD07B681B681022DA610B
:103EE000786800F0ECF97868FFF7E3FD1BE07B6889
:103EF0001B681022DA6116E07B681B681022DA6109
:103F00007B685B6C43F004027B685A64FB68002B9F
:103F100003D0FB68B3F1807F05D17B685B6C1946E9
:103F2000786800F0B5F87B68002283F842207B684F
:103F300000225A637B685B6C002B10D07B685B6C43
:103F40001946786800F0A4F87B6893F84130DBB23A
:103F5000282B41D17969786800F046F83CE07B680D
:103F6000DB6A13F5803F14D07868FFF7A2FD7B6809
:103F70001C4ADA627B68202283F841207B68002299
:103F80001A637B68002283F840207868FCF797FD6D
:103F900022E07B6893F84130DBB2222B0ED17B68A4
:103FA000202283F841207B6800221A637B6800226C
:103FB00083F840207868FCF7E1FD0DE07B68202263
:103FC00083F841207B6800221A637B68002283F813
:103FD00040207868FCF7B0FD00BF1C37BD4690BD9F
:103FE00000E800FE0000FFFF80B582B000AF7860FF
:103FF00039607B68254ADA627B6800221A637B6835
:10400000202283F841207B68002283F842207B68CD
:1040100000225A633B6803F00403002B22D07B6824
:104020001B685A6A7B685B6AD2B21A707B685B6AEB
:104030005A1C7B685A627B681B8D002B12D07B68F0
:104040001B8D013B9AB27B681A857B685B8D9BB2A6
:10405000013B9AB27B685A857B685B6C43F0040233
:104060007B685A6448F20301786800F021FA7B68A3
:104070001B681022DA617B68002283F84020786890
:10408000FCF71DFD00BF0837BD4680BD0000FFFFE7
:1040900080B584B000AF786039607B6893F84130B8
:1040A000FB737B68002283F842207B686D4ADA62EA
:1040B0007B6800225A857B685A6C3B681A437B6890
:1040C0005A64FB7B282B05D0FB7B292B02D0FB7B82
:1040D0002A2B0BD10321786800F0EAF97B682822AB
:1040E00083F841207B68604A5A6330E048F203015C
:1040F000786800F0DDF9786800F0E1F87B6893F803
:104100004130DBB2602B1FD07B68202283F8412036
:104110007B681B689B6903F02003202B14D17B680C
:104120001B689B6903F01003102B09D17B681B6887
:104130001022DA617B685B6C43F004027B685A648E
:104140007B681B682022DA617B6800225A637B68E7
:104150001B6BBB607B689B6B002B39D0BB68112B42
:1041600002D0BB68212B33D17B681B681B6803F42A
:104170008043B3F5804F07D17B681B681A687B6862
:104180001B6822F480421A607B689B6B1846FEF71E
:104190008CF80346012B17D07B689B6B334ADA6699
:1041A0007B68002283F840207B689B6B1846FEF7F3
:1041B00053F80346002B4DD07B689B6BDB6E7A680F
:1041C000926B1046984745E0786800F051F841E05E
:1041D0007B68DB6B002B39D0BB68122B02D0BB682D
:1041E000222B33D17B681B681B6803F40043B3F5B3
:1041F000004F07D17B681B681A687B681B6822F434
:1042000000421A607B68DB6B1846FEF74EF80346E7
:10421000012B17D07B68DB6B144ADA667B680022BF
:1042200083F840207B68DB6B1846FEF715F80346E1
:10423000002B11D07B68DB6BDB6E7A68D26B10468B
:10424000984709E0786800F013F805E0786800F016
:104250000FF802E000BF00E000BF00BF1037BD460E
:1042600080BD00BF0000FFFF4B310008074300087E
:1042700080B582B000AF78607B6893F84130DBB2E4
:10428000602B0ED17B68202283F841207B680022BE
:104290001A637B68002283F840207868FEF73FFFAE
:1042A00009E07B6800221A637B68002283F84020C3
:1042B0007868FCF7B9FD00BF0837BD4680BD80B403
:1042C00083B000AF78607B681B689B6903F00203D2
:1042D000022B03D17B681B6800229A627B681B68F3
:1042E0009B6903F00103012B07D07B681B689A6967
:1042F0007B681B6842F001029A6100BF0C37BD4623
:104300005DF8047B704780B584B000AF78607B684F
:10431000DB6DFB60FB689B6B002B03D0FB689B6B2A
:104320000022DA66FB68DB6B002B03D0FB68DB6BDB
:104330000022DA66F868FFF79BFF00BF1037BD4622
:1043400080BD000080B487B000AFF8607B600B4692
:104350007B8113467B727B89C3F309027B7A1B0442
:1043600003F47F031A437B681A433B6A134323F029
:1043700000437B61FB681B685A683B6A5B0D03F472
:104380008061084B0B43DB4302EA0301FB681B68B7
:104390007A690A435A6000BF1C37BD465DF8047B4A
:1043A000704700BFFF63FF0380B485B000AF786043
:1043B0000B467B800023FB607B685B6B394A934232
:1043C00032D07B685B6B384A93422DD07B685B6B45
:1043D000364A934228D0B7F90230002B03DAFB6843
:1043E00043F0B803FB607B8803F00103002B03D08C
:1043F000FB6843F0F203FB607B8803F00203002BB1
:1044000003D0FB6843F0F403FB607B88102B03D1DF
:10441000FB6843F09003FB607B88202B33D1FB6863
:1044200043F02003FB602EE0B7F90230002B03DAE3
:10443000FB6843F0B803FB607B8803F00103002BAB
:1044400003D0FB6843F0F203FB607B8803F00203B8
:10445000002B03D0FB6843F0F403FB607B88102B38
:1044600003D1FB6843F09003FB607B88202B03D1D2
:10447000FB6843F06003FB607B88402B03D1FB6843
:1044800043F04003FB607B681B6819687B681B680E
:10449000FA680A431A6000BF1437BD465DF8047B12
:1044A000704700BF3D33000861370008153500082C
:1044B00080B485B000AF78600B467B800023FB6042
:1044C0007B8803F00103002B0FD0FB6843F042030D
:1044D000FB607B6893F84130DBB203F02803282BA4
:1044E00003D0FB6843F0B003FB607B8803F002035A
:1044F000002B0FD0FB6843F04403FB607B6893F80C
:104500004130DBB203F02803282B03D0FB6843F0D3
:10451000B003FB60B7F90230002B03DAFB6843F00D
:10452000B803FB607B88102B03D1FB6843F090033A
:10453000FB607B88202B03D1FB6843F02003FB60EA
:104540007B88402B03D1FB6843F04003FB607B6812
:104550001B681968FB68DA437B681B680A401A60AD
:1045600000BF1437BD465DF8047B704780B483B04C
:1045700000AF786039607B6893F84130DBB2202B64
:1045800038D17B6893F84030012B01D1022332E00F
:104590007B68012283F840207B68242283F8412035
:1045A0007B681B681A687B681B6822F001021A602E
:1045B0007B681B681A687B681B6822F480521A604B
:1045C0007B681B6819687B681B683A680A431A6035
:1045D0007B681B681A687B681B6842F001021A60DE
:1045E0007B68202283F841207B68002283F84020EA
:1045F000002300E0022318460C37BD465DF8047B1B
:10460000704780B485B000AF786039607B6893F8FC
:104610004130DBB2202B39D17B6893F84030012B3D
:1046200001D1022333E07B68012283F840207B68BC
:10463000242283F841207B681B681A687B681B680A
:1046400022F001021A607B681B681B68FB60FB6834
:1046500023F47063FB603B681B02FA681343FB6042
:104660007B681B68FA681A607B681B681A687B683D
:104670001B6842F001021A607B68202283F8412007
:104680007B68002283F84020002300E002231846C4
:104690001437BD465DF8047B7047000080B485B0D8
:1046A00000AF78600023FB730B4B1B6803F0010322
:1046B000002B02D00123FB7307E0074B1B6823F09C
:1046C000040205497B6813430B60FB7B18461437D3
:1046D000BD465DF8047B70470004034080B400AF22
:1046E000054B1B68044A43F001031360002318467E
:1046F000BD465DF8047B70470004034080B586B07A
:1047000002AF78607B68002B01D1012308E17B6850
:104710001B68BB607B6893F89534DBB2002B06D135
:104720007B68002283F894247868FCF763FF7B6839
:10473000032283F89524BB687B4A934202D17B68AD
:1047400000229A717B681B68184606F049FC7B685A
:1047500018687B681A7C8DF8002004330ECB06F0B5
:1047600070FB0346002B05D07B68022283F895245A
:104770000123D5E07B681B680021184606F041FC48
:104780000346002B05D07B68022283F89524012381
:10479000C6E00023FB734AE0FA7B79681346DB002E
:1047A00013449B000B44153301221A70FA7B79687D
:1047B0001346DB0013449B000B441433FA7B1A703E
:1047C000FA7BFB7B98B279681346DB0013449B00AD
:1047D0000B442E3302461A80FA7B79681346DB00BD
:1047E00013449B000B44183300221A70FA7B79683B
:1047F0001346DB0013449B000B441C3300221A6059
:10480000FA7B79681346DB0013449B000B4420338A
:1048100000221A60FA7B79681346DB0013449B0080
:104820000B44243300221A60FB7B0133FB737B684B
:104830001B79FA7B9A42AFD30023FB7344E0FA7BE7
:1048400079681346DB0013449B000B4403F25523A5
:1048500000221A70FA7B79681346DB0013449B0030
:104860000B4403F51573FA7B1A70FA7B79681346CB
:10487000DB0013449B000B4403F5167300221A70EF
:10488000FA7B79681346DB0013449B000B4403F565
:10489000177300221A60FA7B79681346DB00134411
:1048A0009B000B4403F5187300221A60FA7B7968A9
:1048B0001346DB0013449B000B4403F519730022DD
:1048C0001A60FB7B0133FB737B681B79FA7B9A428E
:1048D000B5D37B6818687B681A7C8DF80020043398
:1048E0000ECB06F0DBFB0346002B05D07B680222D3
:1048F00083F89524012313E07B6800225A747B68B7
:10490000012283F895247B681B7B012B02D17868F8
:1049100000F03CFF7B681B68184606F0E9FE0023A8
:1049200018461037BD4680BD0000044290B58DB0DA
:1049300000AF78607B681B683B623B6AFB617B6809
:104940001B68184606F088FF0346002B40F0B98428
:104950007B681B68184606F0ECFE0346002B00F04F
:10496000AF84FB6903F500639B681B0AC3F30D0268
:104970007B68C3F8D4247B681B68184606F0D9FE10
:10498000034603F00203022B07D17B681B685A69B8
:104990007B681B6802F002025A617B681B6818463C
:1049A00006F0C7FE034603F01003102B61D17B68AD
:1049B0001B689A697B681B6822F010029A613B6A47
:1049C0001B6ABB61BB6903F00F021346DB00134493
:1049D0009B0003F514737A68134404337B61BB694D
:1049E0005B0C03F00F03022B24D1BA6947F6F07376
:1049F0001340002B35D07B69D968BB691B099BB27A
:104A0000C3F30A039BB21A46386A06F019FE7B69A3
:104A1000DA68BB691B09C3F30A031A447B69DA60CD
:104A20007B695A69BB691B09C3F30A031A447B6992
:104A30005A6116E0BB695B0C03F00F03062B10D123
:104A40007B6803F29C4308221946386A06F0F8FD99
:104A50007B695A69BB691B09C3F30A031A447B6962
:104A60005A617B681B689A697B681B6842F0100278
:104A70009A617B681B68184606F05BFE034603F4E8
:104A80000023B3F5002F40F0A78000237B627B68F2
:104A90001B68184606F060FEB86299E0BB6A03F036
:104AA0000103002B00F08E807B681B687A6AD2B20B
:104AB0001146184606F084FE38613B6903F0010395
:104AC000002B0CD07B6A5A01FB69134403F5306359
:104AD0001A4601239360796A786800F029FD3B69E2
:104AE00003F00803002B0CD07B6A5A01FB691344C6
:104AF00003F530631A4608239360796A786800F0FA
:104B0000FFFD3B6903F01003002B08D07B6A5A01BC
:104B1000FB69134403F530631A46102393603B6925
:104B200003F00203002B30D03B6A5B6903F0800383
:104B3000802B09D1FB6903F500635B68FA6902F514
:104B4000006243F4806353607A6A1346DB001344C7
:104B50009B0003F514737A68134404337B617B690B
:104B6000DB78012B08D17B690022DA707B6ADBB22B
:104B70001946786800F0F2FB7B6A5A01FB6913441E
:104B800003F530631A46022393603B6903F0200368
:104B9000002B08D07B6A5A01FB69134403F530638C
:104BA0001A46202393603B6903F40053002B09D07D
:104BB0007B6A5A01FB69134403F530631A464FF4CC
:104BC000005393607B6A01337B62BB6A5B08BB6204
:104BD000BB6A002B7FF462AF7B681B68184606F047
:104BE000A8FD034603F48023B3F5802F40F0DB805B
:104BF0007B681B68184606F0C9FDB86200237B621B
:104C0000CDE0BB6A03F00103002B00F0C2807B689B
:104C10001B687A6AD2B21146184606F0EFFD386179
:104C20003B6903F00103002B57D07B6A03F00F03AD
:104C3000012202FA03F3FB60FB6903F500635A6B80
:104C4000FB68DB43F96901F5006113404B637B6A44
:104C50005A01FB69134403F510631A46012393605C
:104C60007B689B79012B32D179687A6A1346DB0025
:104C700013449B000B442033196878687A6A134602
:104C8000DB0013449B0003441C331B681944786801
:104C90007A6A1346DB0013449B00034420331960F7
:104CA0007B6A002B13D179687A6A1346DB001344C0
:104CB0009B000B4424331B68002B08D17B681868C9
:104CC0007B6803F29C431A46012106F0F7FD7B6ADC
:104CD000DBB21946786800F003FB3B6903F0080378
:104CE000002B08D07B6A5A01FB69134403F510635B
:104CF0001A46082393603B6903F01003002B08D089
:104D00007B6A5A01FB69134403F510631A461023AA
:104D100093603B6903F04003002B08D07B6A5A0183
:104D2000FB69134403F510631A46402393603B6903
:104D300003F00203002B23D0796A386A06F0FAFAEE
:104D40007A6A1346DB0013449B0010337A681344DD
:104D500004337B617B69DB78012B08D17B690022FE
:104D6000DA707B6ADBB21946786800F003FB7B6A75
:104D70005A01FB69134403F510631A46022393603A
:104D80003B6903F08003002B03D0796A786800F058
:104D900042FB7B6A01337B62BB6A5B08BB62BB6A16
:104DA000002B7FF42EAF7B681B68184606F0C1FC11
:104DB000034603F00043B3F1004F22D1FB6903F532
:104DC00000635B68FA6902F5006223F00103536037
:104DD0007B6893F8CC34012B08D17B68002283F8E0
:104DE000CC240021786800F0F5FC02E0786800F03F
:104DF000ABFA7B681B685A697B681B6802F000424B
:104E00005A617B681B68184606F093FC034603F45E
:104E10000063B3F5006F12D1FB6903F500639B6873
:104E200003F00103012B02D1786800F083FA7B685C
:104E30001B685A697B681B6802F400625A617B68D0
:104E40001B68184606F075FC034603F00063B3F1D7
:104E5000006F21D17B681B685A697B681B6802F070
:104E600000625A617B6893F8CC34002B11D17B68C7
:104E7000012283F8CC247B681B685B6D9B0803F0E0
:104E80000F027B68C3F8D0240121786800F0A2FCEF
:104E900002E0786800F04EFA7B681B68184606F05E
:104EA00048FC034603F48053B3F5805F40F0B780BD
:104EB000FB6903F500635B68FA6902F5006223F0A1
:104EC000010353607B681B681021184606F032FA14
:104ED0000023FB6246E0FB6A5A01FB69134403F5B9
:104EE00010631A464FF67F339360FB6A5A01FB69E1
:104EF000134403F510631B68FA6A5101FA690A4406
:104F000002F5106223F400131360FB6A5A01FB6977
:104F1000134403F530631A464FF67F339360FB6A00
:104F20005A01FB69134403F530631B68FA6A5101A7
:104F3000FA690A4402F5306223F400131360FB6A35
:104F40005A01FB69134403F530631B68FA6A510187
:104F5000FA690A4402F5306243F000631360FB6AA9
:104F60000133FB627B681B791A46FB6A9342B2D31A
:104F7000FB6903F50063DB69FA6902F5006243F03F
:104F80000113D3617B68DB7B002B16D0FB6903F533
:104F90000063D3F88430FA6902F5006243F00B0332
:104FA000C2F88430FB6903F500635B6CFA6902F5B3
:104FB000006243F00B03536415E0FB6903F50063E3
:104FC0005B69FA6902F5006243F4005343F02B0376
:104FD0005361FB6903F500631B69FA6902F500621E
:104FE00043F00B031361FB6903F500631B68FA6967
:104FF00002F5006223F4FE6313607B6818687B6827
:1050000099797B6803F29C431A4606F057FC7B684B
:105010001B685A697B681B6802F480525A617B687E
:105020001B68184606F085FB034603F40053B3F5EE
:10503000005F23D17B681B68184606F01BFC7B6869
:105040001B68184606F0EFF903461A467B68DA71CA
:105050007B681C6801F0A6FE01467B68DB791A4676
:10506000204605F01BFF786800F05AF97B681B6842
:105070005A697B681B6802F400525A617B681B689E
:10508000184606F056FB034603F00803082B0AD126
:10509000786800F03BF97B681B685A697B681B687D
:1050A00002F008025A617B681B68184606F041FB53
:1050B000034603F08003802B23D13B6A9B6923F0D6
:1050C00080023B6A9A6101237B6214E079687A6A04
:1050D0001346DB0013449B000B4403F257231B7859
:1050E000012B05D17B6ADBB21946786800F062F9C2
:1050F0007B6A01337B627B681B791A467B6A934229
:10510000E4D37B681B68184606F013FB034603F4E0
:105110008013B3F5801F3CD101237B622BE07B6AB7
:105120005A01FB69134403F510631B68BB6179687E
:105130007A6A1346DB0013449B000B4418331B7838
:10514000012B15D1BB69002B12DA79687A6A1346F4
:10515000DB0013449B000B44173301221A707B6A57
:10516000DBB263F07F03DBB21946786800F022F906
:105170007B6A01337B627B681B791A467B6A9342A8
:10518000CDD37B681B685A697B681B6802F4801268
:105190005A617B681B68184606F0CBFA034603F495
:1051A0000013B3F5001F56D101237B6245E07B6AF3
:1051B0005A01FB69134403F530631B68BB617968CE
:1051C0007A6A1346DB0013449B000B4403F5167305
:1051D0001B78012B2ED1BB69002B2BDABB6903F4A2
:1051E00080327B68D3F8D43403F001039A4221D192
:1051F00079687A6A1346DB0013449B000B4403F280
:10520000572301221A703B6A9B6943F080023B6A74
:105210009A613B6A5B6903F08003002B0AD1FB694A
:1052200003F500635B68FA6902F5006243F40073FA
:10523000536008E07B6A01337B627B681B791A4606
:105240007B6A9342B3D37B681B685A697B681B688F
:1052500002F400125A617B681B68184606F069FA6E
:10526000034603F08043B3F1804F0AD1786800F021
:105270008DF87B681B685A697B681B6802F0804266
:105280005A617B681B68184606F053FA034603F020
:105290000403042B15D17B681B685B68BB61BB6989
:1052A00003F00403002B02D0786800F079F87B68E3
:1052B0001B6859687B681B68BA690A435A6000E03A
:1052C00000BF3437BD4690BD80B483B000AF786076
:1052D0000B46FB7000BF0C37BD465DF8047B704782
:1052E00080B483B000AF78600B46FB7000BF0C3712
:1052F000BD465DF8047B704780B483B000AF786032
:1053000000BF0C37BD465DF8047B704780B483B0A6
:1053100000AF786000BF0C37BD465DF8047B704776
:1053200080B483B000AF786000BF0C37BD465DF835
:10533000047B704780B483B000AF786000BF0C3747
:10534000BD465DF8047B704780B483B000AF7860E1
:1053500000BF0C37BD465DF8047B704780B483B056
:1053600000AF78600B46FB7000BF0C37BD465DF8A0
:10537000047B704780B483B000AF78600B46FB704D
:1053800000BF0C37BD465DF8047B704780B483B026
:1053900000AF786000BF0C37BD465DF8047B7047F6
:1053A00080B483B000AF786000BF0C37BD465DF8B5
:1053B000047B704780B584B000AF78600B46FB700B
:1053C00097F90330002B0CDAFB7803F00F02134639
:1053D000DB0013449B0010337A6813440433FB60F2
:1053E0000CE0FB7803F00F021346DB0013449B0034
:1053F00003F514737A6813440433FB607B681B68FD
:10540000F968184606F034F80346FB72FB7A184632
:105410001037BD4680BD80B58AB002AF7860396074
:105420007B681B687B617B693B613A681346DB00E4
:1054300013449B0010337A6813440433FB60FB6809
:105440005A69FB681B699A4201D901236BE0FB682A
:105450001A69FB685B69D31AFB61FB689B68FA6990
:105460009A4202D9FB689B68FB61FB6903339B0886
:10547000BB612AE0FB681A69FB685B69D31AFB61B0
:10548000FB689B68FA699A4202D9FB689B68FB61DA
:10549000FB6903339B08BB61FB68D9683B68DAB2E0
:1054A000FB6998B27B689B7900930346786906F0A4
:1054B00089F8FB68DA68FB691A44FB68DA60FB6804
:1054C0005A69FB691A44FB685A613B685A013B6997
:1054D000134403F510639B699BB2BA699A4209D8D9
:1054E000FB685A69FB681B699A4203D2FB681B6917
:1054F000002BBFD1FB681A69FB685B699A4211D81F
:105500003B6803F00F03012202FA03F3BB603B691F
:1055100003F500635A6BBB68DB43396901F5006131
:1055200013404B63002318462037BD4680BD000062
:1055300080B588B000AF786039607B681B68FB611C
:10554000FB69BB61FB693C3304331B687B613B68CF
:105550005A01BB69134403F530639B683B617B6868
:105560009B79012B7BD13B6903F00803002B15D0FD
:105570007B69614A934240F2B9803B6903F400437E
:10558000002B00F0B3803B685A01BB69134403F55C
:1055900030631A464FF400439360A7E03B6903F081
:1055A0002003002B09D03B685A01BB69134403F563
:1055B00030631A462023936098E03B6903F0280388
:1055C000002B40F093807B694B4A93420FD93B6993
:1055D00003F40043002B0AD03B685A01BB69134413
:1055E00003F530631A464FF4004393607EE03A6857
:1055F0001346DB0013449B0003F514737A681344CD
:105600000433FB60FB681A6A3B685901BB690B44B1
:1056100003F530631B69C3F31203D21AFB685A61A6
:105620003B68002B14D1FB681B69002B09D17B68F8
:1056300018687B6803F29C431A46012106F03EF984
:1056400006E0FB68DA68FB685B691A44FB68DA60AD
:105650003B68DBB219467868FFF736FE46E07B69A7
:10566000264A934224D13B6903F40043002B0AD01D
:105670003B685A01BB69134403F530631A464FF483
:105680000043936032E03B6903F02003002B08D015
:105690003B685A01BB69134403F530631A46202363
:1056A00093603B68DBB219467868FFF70DFE1DE09A
:1056B0003B68002B14D179683A681346DB00134429
:1056C0009B000B4403F519731B68002B08D17B6802
:1056D00018687B6803F29C431A46002106F0EEF836
:1056E0003B68DBB219467868FFF7EEFD00231846E9
:1056F0002037BD4680BD00BF0A30544F0A31544F99
:1057000080B586B000AF786039607B681B687B61CC
:105710007B693B617B693C3304331B68FB603B68FE
:105720005A013B69134403F530639B68BB60FB6817
:10573000154A93420ED9BB6803F40043002B09D0ED
:105740003B685A013B69134403F530631A464FF432
:10575000004393607868FFF7CFFDFB680A4A9342E5
:105760000CD97B689B79012B08D17B6818687B6812
:1057700003F29C431A46012106F0A0F800231846C4
:105780001837BD4680BD00BF0A30544F80B485B085
:1057900000AF78607B681B68FB607B680122C3F800
:1057A000D8247B68002283F8CC24FB689B6943F0F3
:1057B0000062FB689A61FB685B6D43F0805343F0C5
:1057C0000303FA685365002318461437BD465DF895
:1057D000047B704780B483B000AF78600B46FB70E9
:1057E00000BF0C37BD465DF8047B704780B485B0C0
:1057F00000AF7860394BDB6B03F44033BB60BA68B1
:105800007B689A420BD17B68B3F5803F05D9334B57
:10581000DB68324A43F48023D360002357E07B687F
:10582000B3F5803F0AD92D4BDB6823F4E0227B6877
:1058300013432A4A43F48023D36007E0274BDB68F5
:1058400023F4E02225497B681343CB60244B1B687B
:10585000244AA2FB03239B09322202FB03F3214AC1
:10586000A2FB03239B090133FB6002E0FB68013BC1
:10587000FB601A4BDB6803F40043002B02D1FB688A
:10588000002BF3D1FB68002B1BD0154B1B68154A6E
:10589000A2FB03239B09322202FB03F3114AA2FB62
:1058A00003239B090133FB6002E0FB68013BFB60C3
:1058B0000A4BDB6B03F40043002B02D1FB68002B87
:1058C000F3D1FB68002B01D1032300E0002318462D
:1058D0001437BD465DF8047B704700BF00080246E0
:1058E00004000020D34D621080B400AF044BDB6B8A
:1058F00003F440331846BD465DF8047B704700BF93
:105900000008024680B485B000AF7860224B1B6867
:10591000224AA2FB03239B09322202FB03F31F4A04
:10592000A2FB03239B090133FB607B68002B13D18F
:105930001B4B9B681A4A23F00203936002E0FB684A
:10594000013BFB60164BDB6B03F00203022B16D10D
:10595000FB68002BF3D112E0114B9B68104A43F017
:105960000203936002E0FB68013BFB600C4BDB6BC6
:1059700003F00203002B02D1FB68002BF3D1FB687C
:10598000002B01D1032300E0002318461437BD4645
:105990005DF8047B704700BF04000020D34D621007
:1059A0000008024680B400AF054B1B69044A43F06F
:1059B0008053136100BFBD465DF8047B704700BF94
:1059C0000008024680B400AF054B1B69044A43F04F
:1059D0000053136100BFBD465DF8047B704700BFF4
:1059E0000008024680B400AF054B1B69044A43F02F
:1059F0008043136100BFBD465DF8047B704700BF64
:105A00000008024680B58EB000AF7860002387F8AA
:105A100037307B68002B02D1012300F0C8BE994BC0
:105A2000DB6903F00C033B63964B9B6A03F00303B3
:105A3000FB627B681B6803F01003002B00F06C8195
:105A40003B6B002B07D03B6B0C2B40F0DE80FB6ADE
:105A5000012B40F0DA807B68DB69002B02D1012347
:105A600000F0A5BE7B685A6A864B9B6803F400036E
:105A7000002B04D0834B9B6803F0704305E0814BFF
:105A8000D3F8F4301B0403F07043934255D23B6BC0
:105A9000002B0AD17B685B6A184601F011FA0346B5
:105AA000002B02D0012300F082BE764B9B68754A22
:105AB00043F400039360734B9B6823F070427B6850
:105AC0005B6A704913438B607B685B6AB3F1404F3C
:105AD00009D36C4BDB6823F01F027B681B6A6949A2
